{
  "contractName": "Cryptokitty",
  "abi": [
    {
      "inputs": [
        {
          "internalType": "string",
          "name": "_name",
          "type": "string"
        },
        {
          "internalType": "string",
          "name": "_symbol",
          "type": "string"
        },
        {
          "internalType": "string",
          "name": "_tokenURIBase",
          "type": "string"
        }
      ],
      "stateMutability": "nonpayable",
      "type": "constructor"
    },
    {
      "anonymous": false,
      "inputs": [
        {
          "indexed": true,
          "internalType": "address",
          "name": "_owner",
          "type": "address"
        },
        {
          "indexed": true,
          "internalType": "address",
          "name": "_approved",
          "type": "address"
        },
        {
          "indexed": true,
          "internalType": "uint256",
          "name": "_tokenId",
          "type": "uint256"
        }
      ],
      "name": "Approval",
      "type": "event"
    },
    {
      "anonymous": false,
      "inputs": [
        {
          "indexed": true,
          "internalType": "address",
          "name": "_owner",
          "type": "address"
        },
        {
          "indexed": true,
          "internalType": "address",
          "name": "_operator",
          "type": "address"
        },
        {
          "indexed": false,
          "internalType": "bool",
          "name": "_approved",
          "type": "bool"
        }
      ],
      "name": "ApprovalForAll",
      "type": "event"
    },
    {
      "anonymous": false,
      "inputs": [
        {
          "indexed": true,
          "internalType": "address",
          "name": "_from",
          "type": "address"
        },
        {
          "indexed": true,
          "internalType": "address",
          "name": "_to",
          "type": "address"
        },
        {
          "indexed": true,
          "internalType": "uint256",
          "name": "_tokenId",
          "type": "uint256"
        }
      ],
      "name": "Transfer",
      "type": "event"
    },
    {
      "inputs": [],
      "name": "admin",
      "outputs": [
        {
          "internalType": "address",
          "name": "",
          "type": "address"
        }
      ],
      "stateMutability": "view",
      "type": "function",
      "constant": true
    },
    {
      "inputs": [
        {
          "internalType": "address",
          "name": "_approved",
          "type": "address"
        },
        {
          "internalType": "uint256",
          "name": "_tokenId",
          "type": "uint256"
        }
      ],
      "name": "approve",
      "outputs": [],
      "stateMutability": "payable",
      "type": "function",
      "payable": true
    },
    {
      "inputs": [
        {
          "internalType": "address",
          "name": "_owner",
          "type": "address"
        }
      ],
      "name": "balanceOf",
      "outputs": [
        {
          "internalType": "uint256",
          "name": "",
          "type": "uint256"
        }
      ],
      "stateMutability": "view",
      "type": "function",
      "constant": true
    },
    {
      "inputs": [
        {
          "internalType": "uint256",
          "name": "_tokenId",
          "type": "uint256"
        }
      ],
      "name": "getApproved",
      "outputs": [
        {
          "internalType": "address",
          "name": "",
          "type": "address"
        }
      ],
      "stateMutability": "view",
      "type": "function",
      "constant": true
    },
    {
      "inputs": [
        {
          "internalType": "address",
          "name": "_owner",
          "type": "address"
        },
        {
          "internalType": "address",
          "name": "_operator",
          "type": "address"
        }
      ],
      "name": "isApprovedForAll",
      "outputs": [
        {
          "internalType": "bool",
          "name": "",
          "type": "bool"
        }
      ],
      "stateMutability": "view",
      "type": "function",
      "constant": true
    },
    {
      "inputs": [
        {
          "internalType": "uint256",
          "name": "",
          "type": "uint256"
        }
      ],
      "name": "kitties",
      "outputs": [
        {
          "internalType": "uint256",
          "name": "id",
          "type": "uint256"
        },
        {
          "internalType": "uint256",
          "name": "generation",
          "type": "uint256"
        },
        {
          "internalType": "uint256",
          "name": "geneA",
          "type": "uint256"
        },
        {
          "internalType": "uint256",
          "name": "geneB",
          "type": "uint256"
        }
      ],
      "stateMutability": "view",
      "type": "function",
      "constant": true
    },
    {
      "inputs": [],
      "name": "name",
      "outputs": [
        {
          "internalType": "string",
          "name": "",
          "type": "string"
        }
      ],
      "stateMutability": "view",
      "type": "function",
      "constant": true
    },
    {
      "inputs": [],
      "name": "nextId",
      "outputs": [
        {
          "internalType": "uint256",
          "name": "",
          "type": "uint256"
        }
      ],
      "stateMutability": "view",
      "type": "function",
      "constant": true
    },
    {
      "inputs": [
        {
          "internalType": "uint256",
          "name": "_tokenId",
          "type": "uint256"
        }
      ],
      "name": "ownerOf",
      "outputs": [
        {
          "internalType": "address",
          "name": "",
          "type": "address"
        }
      ],
      "stateMutability": "view",
      "type": "function",
      "constant": true
    },
    {
      "inputs": [
        {
          "internalType": "address",
          "name": "_from",
          "type": "address"
        },
        {
          "internalType": "address",
          "name": "_to",
          "type": "address"
        },
        {
          "internalType": "uint256",
          "name": "_tokenId",
          "type": "uint256"
        }
      ],
      "name": "safeTransferFrom",
      "outputs": [],
      "stateMutability": "payable",
      "type": "function",
      "payable": true
    },
    {
      "inputs": [
        {
          "internalType": "address",
          "name": "_from",
          "type": "address"
        },
        {
          "internalType": "address",
          "name": "_to",
          "type": "address"
        },
        {
          "internalType": "uint256",
          "name": "_tokenId",
          "type": "uint256"
        },
        {
          "internalType": "bytes",
          "name": "data",
          "type": "bytes"
        }
      ],
      "name": "safeTransferFrom",
      "outputs": [],
      "stateMutability": "payable",
      "type": "function",
      "payable": true
    },
    {
      "inputs": [
        {
          "internalType": "address",
          "name": "_operator",
          "type": "address"
        },
        {
          "internalType": "bool",
          "name": "_approved",
          "type": "bool"
        }
      ],
      "name": "setApprovalForAll",
      "outputs": [],
      "stateMutability": "nonpayable",
      "type": "function"
    },
    {
      "inputs": [],
      "name": "symbol",
      "outputs": [
        {
          "internalType": "string",
          "name": "",
          "type": "string"
        }
      ],
      "stateMutability": "view",
      "type": "function",
      "constant": true
    },
    {
      "inputs": [
        {
          "internalType": "uint256",
          "name": "_tokenId",
          "type": "uint256"
        }
      ],
      "name": "tokenURI",
      "outputs": [
        {
          "internalType": "string",
          "name": "",
          "type": "string"
        }
      ],
      "stateMutability": "view",
      "type": "function",
      "constant": true
    },
    {
      "inputs": [],
      "name": "tokenURIBase",
      "outputs": [
        {
          "internalType": "string",
          "name": "",
          "type": "string"
        }
      ],
      "stateMutability": "view",
      "type": "function",
      "constant": true
    },
    {
      "inputs": [
        {
          "internalType": "address",
          "name": "_from",
          "type": "address"
        },
        {
          "internalType": "address",
          "name": "_to",
          "type": "address"
        },
        {
          "internalType": "uint256",
          "name": "_tokenId",
          "type": "uint256"
        }
      ],
      "name": "transferFrom",
      "outputs": [],
      "stateMutability": "payable",
      "type": "function",
      "payable": true
    },
    {
      "inputs": [
        {
          "internalType": "uint256",
          "name": "kitty1Id",
          "type": "uint256"
        },
        {
          "internalType": "uint256",
          "name": "kitty2Id",
          "type": "uint256"
        }
      ],
      "name": "breed",
      "outputs": [],
      "stateMutability": "nonpayable",
      "type": "function"
    },
    {
      "inputs": [],
      "name": "mint",
      "outputs": [],
      "stateMutability": "nonpayable",
      "type": "function"
    }
  ],
  "bytecode": "0x60806040523480156200001157600080fd5b5060405162002434380380620024348339818101604052810190620000379190620001f4565b828282826005908051906020019062000052929190620000d2565b5081600690805190602001906200006b929190620000d2565b50806007908051906020019062000084929190620000d2565b5050505033600a60006101000a81548173ffffffffffffffffffffffffffffffffffffffff021916908373ffffffffffffffffffffffffffffffffffffffff160217905550505050620003c6565b828054620000e09062000332565b90600052602060002090601f01602090048101928262000104576000855562000150565b82601f106200011f57805160ff191683800117855562000150565b8280016001018555821562000150579182015b828111156200014f57825182559160200191906001019062000132565b5b5090506200015f919062000163565b5090565b5b808211156200017e57600081600090555060010162000164565b5090565b6000620001996200019384620002c9565b62000295565b905082815260208101848484011115620001b257600080fd5b620001bf848285620002fc565b509392505050565b600082601f830112620001d957600080fd5b8151620001eb84826020860162000182565b91505092915050565b6000806000606084860312156200020a57600080fd5b600084015167ffffffffffffffff8111156200022557600080fd5b6200023386828701620001c7565b935050602084015167ffffffffffffffff8111156200025157600080fd5b6200025f86828701620001c7565b925050604084015167ffffffffffffffff8111156200027d57600080fd5b6200028b86828701620001c7565b9150509250925092565b6000604051905081810181811067ffffffffffffffff82111715620002bf57620002be62000397565b5b8060405250919050565b600067ffffffffffffffff821115620002e757620002e662000397565b5b601f19601f8301169050602081019050919050565b60005b838110156200031c578082015181840152602081019050620002ff565b838111156200032c576000848401525b50505050565b600060028204905060018216806200034b57607f821691505b6020821081141562000362576200036162000368565b5b50919050565b7f4e487b7100000000000000000000000000000000000000000000000000000000600052602260045260246000fd5b7f4e487b7100000000000000000000000000000000000000000000000000000000600052604160045260246000fd5b61205e80620003d66000396000f3fe608060405260043610610126576000357c01000000000000000000000000000000000000000000000000000000009004806370a08231116100b2578063b88d4fde11610081578063b88d4fde14610362578063c87b56dd1461037e578063d9ecad7b146103bb578063e985e9c5146103e4578063f851a4401461042157610126565b806370a08231146102915780638cc51eda146102ce57806395d89b411461030e578063a22cb4651461033957610126565b806323b872dd116100f957806323b872dd146101c6578063261220a3146101e257806342842e0e1461020d57806361b8ce8c146102295780636352211e1461025457610126565b806306fdde031461012b578063081812fc14610156578063095ea7b3146101935780631249c58b146101af575b600080fd5b34801561013757600080fd5b5061014061044c565b60405161014d9190611b8d565b60405180910390f35b34801561016257600080fd5b5061017d60048036038101906101789190611711565b6104da565b60405161018a9190611b0b565b60405180910390f35b6101ad60048036038101906101a891906116ac565b610517565b005b3480156101bb57600080fd5b506101c461066f565b005b6101e060048036038101906101db91906115a1565b61079b565b005b3480156101ee57600080fd5b506101f76107ab565b6040516102049190611b8d565b60405180910390f35b610227600480360381019061022291906115a1565b610839565b005b34801561023557600080fd5b5061023e610859565b60405161024b9190611c8f565b60405180910390f35b34801561026057600080fd5b5061027b60048036038101906102769190611711565b61085f565b6040516102889190611b0b565b60405180910390f35b34801561029d57600080fd5b506102b860048036038101906102b3919061153c565b61089c565b6040516102c59190611c8f565b60405180910390f35b3480156102da57600080fd5b506102f560048036038101906102f09190611711565b6108e4565b6040516103059493929190611caa565b60405180910390f35b34801561031a57600080fd5b50610323610914565b6040516103309190611b8d565b60405180910390f35b34801561034557600080fd5b50610360600480360381019061035b9190611670565b6109a2565b005b61037c600480360381019061037791906115f0565b610a9f565b005b34801561038a57600080fd5b506103a560048036038101906103a09190611711565b610af6565b6040516103b29190611b8d565b60405180910390f35b3480156103c757600080fd5b506103e260048036038101906103dd919061173a565b610b22565b005b3480156103f057600080fd5b5061040b60048036038101906104069190611565565b610d53565b6040516104189190611b72565b60405180910390f35b34801561042d57600080fd5b50610436610de7565b6040516104439190611b0b565b60405180910390f35b6005805461045990611e78565b80601f016020809104026020016040519081016040528092919081815260200182805461048590611e78565b80156104d25780601f106104a7576101008083540402835291602001916104d2565b820191906000526020600020905b8154815290600101906020018083116104b557829003601f168201915b505050505081565b60006002600083815260200190815260200160002060009054906101000a900473ffffffffffffffffffffffffffffffffffffffff169050919050565b60006001600083815260200190815260200160002060009054906101000a900473ffffffffffffffffffffffffffffffffffffffff1690508073ffffffffffffffffffffffffffffffffffffffff163373ffffffffffffffffffffffffffffffffffffffff16146105bd576040517f08c379a00000000000000000000000000000000000000000000000000000000081526004016105b490611c0f565b60405180910390fd5b826002600084815260200190815260200160002060006101000a81548173ffffffffffffffffffffffffffffffffffffffff021916908373ffffffffffffffffffffffffffffffffffffffff160217905550818373ffffffffffffffffffffffffffffffffffffffff168273ffffffffffffffffffffffffffffffffffffffff167f8c5be1e5ebec7d5bd14f71427d1e84f3dd0314c0f7b2291e5b200ac8c7c3b92560405160405180910390a4505050565b600a60009054906101000a900473ffffffffffffffffffffffffffffffffffffffff1673ffffffffffffffffffffffffffffffffffffffff163373ffffffffffffffffffffffffffffffffffffffff16146106ff576040517f08c379a00000000000000000000000000000000000000000000000000000000081526004016106f690611c6f565b60405180910390fd5b6040518060800160405280600954815260200160018152602001610723600a610e0d565b8152602001610732600a610e0d565b8152506008600060095481526020019081526020016000206000820151816000015560208201518160010155604082015181600201556060820151816003015590505061078133600954610e4e565b6009600081548092919061079490611eaa565b9190505550565b6107a6838383610ff8565b505050565b600780546107b890611e78565b80601f01602080910402602001604051908101604052809291908181526020018280546107e490611e78565b80156108315780601f1061080657610100808354040283529160200191610831565b820191906000526020600020905b81548152906001019060200180831161081457829003601f168201915b505050505081565b61085483838360405180602001604052806000815250611300565b505050565b60095481565b60006001600083815260200190815260200160002060009054906101000a900473ffffffffffffffffffffffffffffffffffffffff169050919050565b60008060008373ffffffffffffffffffffffffffffffffffffffff1673ffffffffffffffffffffffffffffffffffffffff168152602001908152602001600020549050919050565b60086020528060005260406000206000915090508060000154908060010154908060020154908060030154905084565b6006805461092190611e78565b80601f016020809104026020016040519081016040528092919081815260200182805461094d90611e78565b801561099a5780601f1061096f5761010080835404028352916020019161099a565b820191906000526020600020905b81548152906001019060200180831161097d57829003601f168201915b505050505081565b80600360003373ffffffffffffffffffffffffffffffffffffffff1673ffffffffffffffffffffffffffffffffffffffff16815260200190815260200160002060008473ffffffffffffffffffffffffffffffffffffffff1673ffffffffffffffffffffffffffffffffffffffff16815260200190815260200160002060006101000a81548160ff0219169083151502179055508173ffffffffffffffffffffffffffffffffffffffff163373ffffffffffffffffffffffffffffffffffffffff167f17307eab39ab6107e8899845ad3d59bd9653f200f220920489ca2b5937696c3183604051610a939190611b72565b60405180910390a35050565b610aef85858585858080601f016020809104026020016040519081016040528093929190818152602001838380828437600081840152601f19601f82011690508083019250505050505050611300565b5050505050565b6060600782604051602001610b0c929190611ab7565b6040516020818303038152906040529050919050565b60095482108015610b34575060095481105b610b73576040517f08c379a0000000000000000000000000000000000000000000000000000000008152600401610b6a90611c2f565b60405180910390fd5b600060086000848152602001908152602001600020905060006008600084815260200190815260200160002090503373ffffffffffffffffffffffffffffffffffffffff16610bc18561085f565b73ffffffffffffffffffffffffffffffffffffffff16148015610c1757503373ffffffffffffffffffffffffffffffffffffffff16610bff8461085f565b73ffffffffffffffffffffffffffffffffffffffff16145b610c56576040517f08c379a0000000000000000000000000000000000000000000000000000000008152600401610c4d90611bef565b60405180910390fd5b60008160010154836001015411610c71578160010154610c77565b82600101545b905060006001610c876004610e0d565b11610c96578260020154610c9c565b83600201545b905060006001610cac6004610e0d565b11610cbb578360030154610cc1565b84600301545b9050604051806080016040528060095481526020018481526020018381526020018281525060086000600954815260200190815260200160002060008201518160000155602082015181600101556040820151816002015560608201518160030155905050610d3233600954610e4e565b60096000815480929190610d4590611eaa565b919050555050505050505050565b6000600360008473ffffffffffffffffffffffffffffffffffffffff1673ffffffffffffffffffffffffffffffffffffffff16815260200190815260200160002060008373ffffffffffffffffffffffffffffffffffffffff1673ffffffffffffffffffffffffffffffffffffffff16815260200190815260200160002060009054906101000a900460ff16905092915050565b600a60009054906101000a900473ffffffffffffffffffffffffffffffffffffffff1681565b6000814244604051602001610e23929190611adf565b6040516020818303038152906040528051906020012060019004610e479190611efd565b9050919050565b600073ffffffffffffffffffffffffffffffffffffffff166001600083815260200190815260200160002060009054906101000a900473ffffffffffffffffffffffffffffffffffffffff1673ffffffffffffffffffffffffffffffffffffffff1614610ef0576040517f08c379a0000000000000000000000000000000000000000000000000000000008152600401610ee790611bcf565b60405180910390fd5b816001600083815260200190815260200160002060006101000a81548173ffffffffffffffffffffffffffffffffffffffff021916908373ffffffffffffffffffffffffffffffffffffffff16021790555060016000808473ffffffffffffffffffffffffffffffffffffffff1673ffffffffffffffffffffffffffffffffffffffff1681526020019081526020016000206000828254610f919190611d47565b92505081905550808273ffffffffffffffffffffffffffffffffffffffff16600073ffffffffffffffffffffffffffffffffffffffff167fddf252ad1be2c89b69c2b068fc378daa952ba7f163c4a11628f55a4df523b3ef60405160405180910390a45050565b8060006001600083815260200190815260200160002060009054906101000a900473ffffffffffffffffffffffffffffffffffffffff1690503373ffffffffffffffffffffffffffffffffffffffff168173ffffffffffffffffffffffffffffffffffffffff1614806110c957503373ffffffffffffffffffffffffffffffffffffffff166002600084815260200190815260200160002060009054906101000a900473ffffffffffffffffffffffffffffffffffffffff1673ffffffffffffffffffffffffffffffffffffffff16145b80611161575060011515600360008373ffffffffffffffffffffffffffffffffffffffff1673ffffffffffffffffffffffffffffffffffffffff16815260200190815260200160002060003373ffffffffffffffffffffffffffffffffffffffff1673ffffffffffffffffffffffffffffffffffffffff16815260200190815260200160002060009054906101000a900460ff161515145b6111a0576040517f08c379a000000000000000000000000000000000000000000000000000000000815260040161119790611baf565b60405180910390fd5b60016000808773ffffffffffffffffffffffffffffffffffffffff1673ffffffffffffffffffffffffffffffffffffffff16815260200190815260200160002060008282546111ef9190611d9d565b9250508190555060016000808673ffffffffffffffffffffffffffffffffffffffff1673ffffffffffffffffffffffffffffffffffffffff16815260200190815260200160002060008282546112459190611d47565b92505081905550836001600085815260200190815260200160002060006101000a81548173ffffffffffffffffffffffffffffffffffffffff021916908373ffffffffffffffffffffffffffffffffffffffff160217905550828473ffffffffffffffffffffffffffffffffffffffff168673ffffffffffffffffffffffffffffffffffffffff167fddf252ad1be2c89b69c2b068fc378daa952ba7f163c4a11628f55a4df523b3ef60405160405180910390a45050505050565b61130b848484610ff8565b61132a8373ffffffffffffffffffffffffffffffffffffffff1661148b565b156114855760008373ffffffffffffffffffffffffffffffffffffffff1663150b7a02338786866040518563ffffffff167c010000000000000000000000000000000000000000000000000000000002815260040161138c9493929190611b26565b602060405180830381600087803b1580156113a657600080fd5b505af11580156113ba573d6000803e3d6000fd5b505050506040513d601f19601f820116820180604052508101906113de91906116e8565b905063150b7a027c0100000000000000000000000000000000000000000000000000000000027bffffffffffffffffffffffffffffffffffffffffffffffffffffffff1916817bffffffffffffffffffffffffffffffffffffffffffffffffffffffff191614611483576040517f08c379a000000000000000000000000000000000000000000000000000000000815260040161147a90611c4f565b60405180910390fd5b505b50505050565b600080823b905060008111915050919050565b6000813590506114ad81611fcc565b92915050565b6000813590506114c281611fe3565b92915050565b6000815190506114d781611ffa565b92915050565b60008083601f8401126114ef57600080fd5b8235905067ffffffffffffffff81111561150857600080fd5b60208301915083600182028301111561152057600080fd5b9250929050565b60008135905061153681612011565b92915050565b60006020828403121561154e57600080fd5b600061155c8482850161149e565b91505092915050565b6000806040838503121561157857600080fd5b60006115868582860161149e565b92505060206115978582860161149e565b9150509250929050565b6000806000606084860312156115b657600080fd5b60006115c48682870161149e565b93505060206115d58682870161149e565b92505060406115e686828701611527565b9150509250925092565b60008060008060006080868803121561160857600080fd5b60006116168882890161149e565b95505060206116278882890161149e565b945050604061163888828901611527565b935050606086013567ffffffffffffffff81111561165557600080fd5b611661888289016114dd565b92509250509295509295909350565b6000806040838503121561168357600080fd5b60006116918582860161149e565b92505060206116a2858286016114b3565b9150509250929050565b600080604083850312156116bf57600080fd5b60006116cd8582860161149e565b92505060206116de85828601611527565b9150509250929050565b6000602082840312156116fa57600080fd5b6000611708848285016114c8565b91505092915050565b60006020828403121561172357600080fd5b600061173184828501611527565b91505092915050565b6000806040838503121561174d57600080fd5b600061175b85828601611527565b925050602061176c85828601611527565b9150509250929050565b61177f81611dd1565b82525050565b61178e81611de3565b82525050565b600061179f82611d04565b6117a98185611d1a565b93506117b9818560208601611e45565b6117c281611fbb565b840191505092915050565b60006117d882611d0f565b6117e28185611d2b565b93506117f2818560208601611e45565b6117fb81611fbb565b840191505092915050565b6000815461181381611e78565b61181d8186611d3c565b9450600182166000811461183857600181146118495761187c565b60ff1983168652818601935061187c565b61185285611cef565b60005b8381101561187457815481890152600182019150602081019050611855565b838801955050505b50505092915050565b6000611892601783611d2b565b91507f5472616e73666572206e6f742061757468726f697a65640000000000000000006000830152602082019050919050565b60006118d2601883611d2b565b91507f5468697320746f6b656e20616c726561647920657869737400000000000000006000830152602082019050919050565b6000611912602383611d2b565b91507f6d73672e73656e646572206d757374206f776e207468652074776f206b69747460008301527f69657300000000000000000000000000000000000000000000000000000000006020830152604082019050919050565b6000611978600d83611d2b565b91507f4e6f7420746865206f776e6572000000000000000000000000000000000000006000830152602082019050919050565b60006119b8601883611d2b565b91507f5468652032206b697474696573206d75737420657869737400000000000000006000830152602082019050919050565b60006119f8602883611d2b565b91507f526563697069656e742053432063616e6e6f742068616e646c6520455243373260008301527f3120746f6b656e730000000000000000000000000000000000000000000000006020830152604082019050919050565b6000611a5e600a83611d2b565b91507f4f6e6c792041646d696e000000000000000000000000000000000000000000006000830152602082019050919050565b611a9a81611e3b565b82525050565b611ab1611aac82611e3b565b611ef3565b82525050565b6000611ac38285611806565b9150611acf8284611aa0565b6020820191508190509392505050565b6000611aeb8285611aa0565b602082019150611afb8284611aa0565b6020820191508190509392505050565b6000602082019050611b206000830184611776565b92915050565b6000608082019050611b3b6000830187611776565b611b486020830186611776565b611b556040830185611a91565b8181036060830152611b678184611794565b905095945050505050565b6000602082019050611b876000830184611785565b92915050565b60006020820190508181036000830152611ba781846117cd565b905092915050565b60006020820190508181036000830152611bc881611885565b9050919050565b60006020820190508181036000830152611be8816118c5565b9050919050565b60006020820190508181036000830152611c0881611905565b9050919050565b60006020820190508181036000830152611c288161196b565b9050919050565b60006020820190508181036000830152611c48816119ab565b9050919050565b60006020820190508181036000830152611c68816119eb565b9050919050565b60006020820190508181036000830152611c8881611a51565b9050919050565b6000602082019050611ca46000830184611a91565b92915050565b6000608082019050611cbf6000830187611a91565b611ccc6020830186611a91565b611cd96040830185611a91565b611ce66060830184611a91565b95945050505050565b60008190508160005260206000209050919050565b600081519050919050565b600081519050919050565b600082825260208201905092915050565b600082825260208201905092915050565b600081905092915050565b6000611d5282611e3b565b9150611d5d83611e3b565b9250827fffffffffffffffffffffffffffffffffffffffffffffffffffffffffffffffff03821115611d9257611d91611f2e565b5b828201905092915050565b6000611da882611e3b565b9150611db383611e3b565b925082821015611dc657611dc5611f2e565b5b828203905092915050565b6000611ddc82611e1b565b9050919050565b60008115159050919050565b60007fffffffff0000000000000000000000000000000000000000000000000000000082169050919050565b600073ffffffffffffffffffffffffffffffffffffffff82169050919050565b6000819050919050565b60005b83811015611e63578082015181840152602081019050611e48565b83811115611e72576000848401525b50505050565b60006002820490506001821680611e9057607f821691505b60208210811415611ea457611ea3611f8c565b5b50919050565b6000611eb582611e3b565b91507fffffffffffffffffffffffffffffffffffffffffffffffffffffffffffffffff821415611ee857611ee7611f2e565b5b600182019050919050565b6000819050919050565b6000611f0882611e3b565b9150611f1383611e3b565b925082611f2357611f22611f5d565b5b828206905092915050565b7f4e487b7100000000000000000000000000000000000000000000000000000000600052601160045260246000fd5b7f4e487b7100000000000000000000000000000000000000000000000000000000600052601260045260246000fd5b7f4e487b7100000000000000000000000000000000000000000000000000000000600052602260045260246000fd5b6000601f19601f8301169050919050565b611fd581611dd1565b8114611fe057600080fd5b50565b611fec81611de3565b8114611ff757600080fd5b50565b61200381611def565b811461200e57600080fd5b50565b61201a81611e3b565b811461202557600080fd5b5056fea264697066735822122012ca23580f7dc2c33165fb3d4c5815baec7a264daaece8c823cb9ad4cbcd4b8c64736f6c63430008000033",
  "immutableReferences": {},
  "source": "// SPDX-License-Identifier: MIT\npragma solidity ^0.8.0;\n\nimport \"./ERC721Token.sol\";\n\ncontract Cryptokitty is ERC721Token {\n    struct Kitty {\n        uint256 id;\n        uint256 generation;\n        uint256 geneA;\n        uint256 geneB;\n    }\n    mapping(uint256 => Kitty) public kitties;\n    uint256 public nextId;\n    address public admin;\n\n    constructor(\n        string memory _name,\n        string memory _symbol,\n        string memory _tokenURIBase\n    ) ERC721Token(_name, _symbol, _tokenURIBase) {\n        admin = msg.sender;\n    }\n\n    function breed(uint256 kitty1Id, uint256 kitty2Id) external {\n        require(\n            kitty1Id < nextId && kitty2Id < nextId,\n            \"The 2 kitties must exist\"\n        );\n        Kitty storage kitty1 = kitties[kitty1Id];\n        Kitty storage kitty2 = kitties[kitty2Id];\n        require(\n            ownerOf(kitty1Id) == msg.sender && ownerOf(kitty2Id) == msg.sender,\n            \"msg.sender must own the two kitties\"\n        );\n        uint256 maxGen = kitty1.generation > kitty2.generation\n            ? kitty1.generation\n            : kitty2.generation;\n        uint256 geneA = _random(4) > 1 ? kitty1.geneA : kitty2.geneA;\n        uint256 geneB = _random(4) > 1 ? kitty1.geneB : kitty2.geneB;\n        kitties[nextId] = Kitty(nextId, maxGen, geneA, geneB);\n        _mint(msg.sender, nextId);\n        nextId++;\n    }\n\n    function mint() external {\n        require(msg.sender == admin, \"Only Admin\");\n        kitties[nextId] = Kitty(nextId, 1, _random(10), _random(10));\n        _mint(msg.sender, nextId);\n        nextId++;\n    }\n\n    function _random(uint256 max) internal view returns (uint256) {\n        return\n            uint256(\n                keccak256(abi.encodePacked(block.timestamp, block.difficulty))\n            ) % max;\n    }\n}\n",
  "sourcePath": "/Users/jasonha/Desktop/demos/smart_contracts/cryptokitty/smart_contract/contracts/Cryptokitty.sol",
  "compiler": {
    "name": "solc",
    "version": "0.8.0+commit.c7dfd78e.Emscripten.clang"
  },
  "schemaVersion": "3.4.5",
  "updatedAt": "2022-03-16T14:58:33.019Z",
  "networkType": "ethereum",
  "devdoc": {
    "kind": "dev",
    "methods": {
      "approve(address,uint256)": {
        "details": "The zero address indicates there is no approved address.  Throws unless `msg.sender` is the current NFT owner, or an authorized  operator of the current owner.",
        "params": {
          "_approved": "The new approved NFT controller",
          "_tokenId": "The NFT to approve"
        }
      },
      "balanceOf(address)": {
        "details": "NFTs assigned to the zero address are considered invalid, and this  function throws for queries about the zero address.",
        "params": {
          "_owner": "An address for whom to query the balance"
        },
        "returns": {
          "_0": "The number of NFTs owned by `_owner`, possibly zero"
        }
      },
      "getApproved(uint256)": {
        "details": "Throws if `_tokenId` is not a valid NFT.",
        "params": {
          "_tokenId": "The NFT to find the approved address for"
        },
        "returns": {
          "_0": "The approved address for this NFT, or the zero address if there is none"
        }
      },
      "isApprovedForAll(address,address)": {
        "params": {
          "_operator": "The address that acts on behalf of the owner",
          "_owner": "The address that owns the NFTs"
        },
        "returns": {
          "_0": "True if `_operator` is an approved operator for `_owner`, false otherwise"
        }
      },
      "ownerOf(uint256)": {
        "details": "NFTs assigned to zero address are considered invalid, and queries  about them do throw.",
        "params": {
          "_tokenId": "The identifier for an NFT"
        },
        "returns": {
          "_0": "The address of the owner of the NFT"
        }
      },
      "safeTransferFrom(address,address,uint256)": {
        "details": "This works identically to the other function with an extra data parameter,  except this function just sets data to \"\".",
        "params": {
          "_from": "The current owner of the NFT",
          "_to": "The new owner",
          "_tokenId": "The NFT to transfer"
        }
      },
      "safeTransferFrom(address,address,uint256,bytes)": {
        "details": "Throws unless `msg.sender` is the current owner, an authorized  operator, or the approved address for this NFT. Throws if `_from` is  not the current owner. Throws if `_to` is the zero address. Throws if  `_tokenId` is not a valid NFT. When transfer is complete, this function  checks if `_to` is a smart contract (code size > 0). If so, it calls  `onERC721Received` on `_to` and throws if the return value is not  `bytes4(keccak256(\"onERC721Received(address,address,uint256,bytes)\"))`.",
        "params": {
          "_from": "The current owner of the NFT",
          "_to": "The new owner",
          "_tokenId": "The NFT to transfer",
          "data": "Additional data with no specified format, sent in call to `_to`"
        }
      },
      "setApprovalForAll(address,bool)": {
        "details": "Emits the ApprovalForAll event. The contract MUST allow  multiple operators per owner.",
        "params": {
          "_approved": "True if the operator is approved, false to revoke approval",
          "_operator": "Address to add to the set of authorized operators"
        }
      },
      "transferFrom(address,address,uint256)": {
        "details": "Throws unless `msg.sender` is the current owner, an authorized  operator, or the approved address for this NFT. Throws if `_from` is  not the current owner. Throws if `_to` is the zero address. Throws if  `_tokenId` is not a valid NFT.",
        "params": {
          "_from": "The current owner of the NFT",
          "_to": "The new owner",
          "_tokenId": "The NFT to transfer"
        }
      }
    },
    "version": 1
  },
  "userdoc": {
    "kind": "user",
    "methods": {
      "approve(address,uint256)": {
        "notice": "Change or reaffirm the approved address for an NFT"
      },
      "balanceOf(address)": {
        "notice": "Count all NFTs assigned to an owner"
      },
      "getApproved(uint256)": {
        "notice": "Get the approved address for a single NFT"
      },
      "isApprovedForAll(address,address)": {
        "notice": "Query if an address is an authorized operator for another address"
      },
      "ownerOf(uint256)": {
        "notice": "Find the owner of an NFT"
      },
      "safeTransferFrom(address,address,uint256)": {
        "notice": "Transfers the ownership of an NFT from one address to another address"
      },
      "safeTransferFrom(address,address,uint256,bytes)": {
        "notice": "Transfers the ownership of an NFT from one address to another address"
      },
      "setApprovalForAll(address,bool)": {
        "notice": "Enable or disable approval for a third party (\"operator\") to manage  all of `msg.sender`'s assets"
      },
      "transferFrom(address,address,uint256)": {
        "notice": "Transfer ownership of an NFT -- THE CALLER IS RESPONSIBLE  TO CONFIRM THAT `_to` IS CAPABLE OF RECEIVING NFTS OR ELSE  THEY MAY BE PERMANENTLY LOST"
      }
    },
    "version": 1
  }
}